:100000000C945D000C9485000C9485000C94850084
:100010000C9485000C9485000C9485000C9485004C
:100020000C9485000C9485000C9485000C9485003C
:100030000C9485000C9485000C9485000C9485002C
:100040000C949C030C9485000C940C040C94E60313
:100050000C9485000C9485000C9485000C9485000C
:100060000C9485000C94850000000008000201003B
:100070000003040700000000000000000000000072
:10008000250028002B0000000000240027002A0083
:10009000040404040404040402020202020203032E
:1000A0000303030301020408102040800102040836
:1000B00010200102040810206B0511241FBECFEF91
:1000C000D8E0DEBFCDBF11E0A0E0B1E0E6E0F0E1B6
:1000D00002C005900D92A834B107D9F721E0A8E439
:1000E000B1E001C01D92AE3EB207E1F710E0CDE5F0
:1000F000D0E004C02197FE010E94F607CC35D1075D
:10010000C9F70E943E040C9401080C94000090E092
:10011000FC01EC55FF4F2491FC01E057FF4F849107
:10012000882399F090E0880F991FFC01EA57FF4F50
:10013000A591B491FC01E458FF4F859194918FB73C
:10014000F894EC91E22BEC938FBF0895E09151016C
:10015000F09152010190F081E02D682F81E591E04E
:10016000099490E0FC01E859FF4F3491FC01EC55F3
:10017000FF4F2491FC01E057FF4FE491EE2309F477
:100180003BC0332339F1333091F038F43130A9F0EA
:10019000323001F584B58F7D12C0373091F03830A0
:1001A000A1F03430B9F4809180008F7D03C080913C
:1001B00080008F77809380000DC084B58F7784BDD9
:1001C00009C08091B0008F7703C08091B0008F7D0F
:1001D0008093B000F0E0EE0FFF1FE458FF4FA591B1
:1001E000B4918FB7F894EC91611103C020952E2340
:1001F00001C02E2B2C938FBF08958E3008F08E50A7
:100200008770806480937C0080917A008064809302
:100210007A0080917A0086FDFCCF80917800209151
:10022000790090E0922B08953FB7F89480914D01AA
:1002300090914E01A0914F01B091500126B5A89B1D
:1002400005C02F3F19F00196A11DB11D3FBFBA2F68
:10025000A92F982F8827820F911DA11DB11DBC01C8
:10026000CD0142E0660F771F881F991F4A95D1F78D
:100270000895CF92DF92EF92FF920F931F93CF9347
:10028000DF936C017A018B01C0E0D0E0CE15DF0571
:1002900089F0D8016D918D01D601ED91FC9101900D
:1002A000F081E02DC6010995892B11F47E0102C071
:1002B0002196ECCFC701DF91CF911F910F91FF9055
:1002C000EF90DF90CF900895089580E090E008953A
:1002D000FC01538D448D252F30E0842F90E0821B4C
:1002E000930B541710F0CF96089501970895FC01D1
:1002F000918D828D981761F0828DDF01A80FB11D5D
:100300005D968C91928D9F5F9F73928F90E0089580
:100310008FEF9FEF0895FC01918D828D981731F03A
:10032000828DE80FF11D858D90E008958FEF9FEF8E
:100330000895FC01918D228D892F90E0805C9F4F64
:10034000821B91098F739927089581E591E00E949E
:10035000990121E0892B09F420E0822F0895FC0106
:10036000848DDF01A80FB11DA35ABF4F2C91848D3E
:1003700090E001968F739927848FA689B7892C9373
:10038000A089B1898C9180648C93938D848D98130E
:1003900006C00288F389E02D80818F7D80830895D7
:1003A000EF92FF920F931F93CF93DF93EC0181E0C5
:1003B000888F9B8D8C8D981305C0E889F989808181
:1003C00085FD24C0F62E0B8D10E00F5F1F4F0F73BD
:1003D0001127E02E8C8DE8120CC00FB607FCFACF67
:1003E000E889F989808185FFF5CFCE010E94AF01B0
:1003F000F1CF8B8DFE01E80FF11DE35AFF4FF08224
:100400000B8FEA89FB898081806207C0EE89FF89B2
:100410006083E889F98980818064808381E090E04D
:10042000DF91CF911F910F91FF90EF900895CF939F
:10043000DF93EC01888D8823C9F0EA89FB898081EC
:1004400085FD05C0A889B9898C9186FD0FC00FB6BE
:1004500007FCF5CF808185FFF2CFA889B9898C91FF
:1004600085FFEDCFCE010E94AF01E7CFDF91CF91A5
:10047000089580E090E0892B29F00E94A501811168
:100480000C9400000895009769F0FC010190002091
:10049000E9F73197AF01481B590BBC0181E591E0A9
:1004A0000C94390180E090E008958F929F92AF9272
:1004B000BF920F931F93CF93DF93CDB7DEB7A19772
:1004C0000FB6F894DEBF0FBECDBF19A2423008F4BC
:1004D0004AE08E010F5D1F4F842E912CA12CB12C70
:1004E000A50194010E949805E62FB901CA010150A7
:1004F0001109EA3014F4E05D01C0E95CD801EC9325
:10050000232B242B252B61F7C8010E944302A196BF
:100510000FB6F894DEBF0FBECDBFDF91CF911F9114
:100520000F91BF90AF909F908F9008950C944302CD
:10053000CF92DF92EF92FF92CF93DF936C01990FEE
:10054000EE08FF08F7FE17C08DE20E94A600EC013E
:1005500066277727CB016C197D098E099F094AE030
:100560000E9455028C0F9D1FDF91CF91FF90EF905D
:10057000DF90CF9008954AE0C701B601DF91CF9197
:10058000FF90EF90DF90CF900C9455024F925F92C6
:100590006F927F928F929F92AF92BF92CF92DF9293
:1005A000EF92FF926B017C01B42E9B01AC010E9483
:1005B000F107882319F082E191E027C02601370175
:1005C000E89477F82FEF3FEF4FE75FE7C301B20101
:1005D0000E94F10781110DC02FEF3FEF4FE75FE75A
:1005E000C301B2010E94270618161CF486E191E0AF
:1005F0000CC02FEF3FEF4FE75FE4C701B6010E9449
:100600007F07181684F48AE191E0FF90EF90DF9065
:10061000CF90BF90AF909F908F907F906F905F90A2
:100620004F900C9443022FEF3FEF4FE75FECC70171
:10063000B6010E94270687FDE6CF20E030E0A90141
:10064000C701B6010E94270687FF09C08DE20E94FC
:10065000A6004C01F7FAF094F7F8F09402C0812C50
:10066000912CA12C60E070E080E09FE3AB1441F09E
:1006700020E030E040E251E40E942C06A394F6CF43
:100680009B01AC01C701B6010E94BB052B013C01D7
:100690000E949E066B017C010E94CD069B01AC016D
:1006A000C301B2010E94BA052B013C014AE0C70117
:1006B000B6010E9455027C01E80CF91CBB2029F010
:1006C0008EE20E94A600E80EF91EDB2CDD2021F14F
:1006D00020E030E040E251E4C301B2010E9484070F
:1006E0002B013C010E949E064B01A12CB12C4AE03B
:1006F000C501B4010E945502E80EF91EC501B401FE
:100700000E94CD069B01AC01C301B2010E94BA0553
:100710002B013C01DA94DACFC701FF90EF90DF9014
:10072000CF90BF90AF909F908F907F906F905F9091
:100730004F9008950E94FC071F920F920FB60F92E0
:1007400011242F933F938F939F93AF93BF938091E7
:10075000490190914A01A0914B01B0914C01309117
:10076000480123E0230F2D3720F40196A11DB11D70
:1007700005C026E8230F0296A11DB11D2093480154
:100780008093490190934A01A0934B01B0934C018F
:1007900080914D0190914E01A0914F01B091500177
:1007A0000196A11DB11D80934D0190934E01A09320
:1007B0004F01B0935001BF91AF919F918F913F91A5
:1007C0002F910F900FBE0F901F9018951F920F92B0
:1007D0000FB60F9211242F933F934F935F936F9314
:1007E0007F938F939F93AF93BF93EF93FF9381E595
:1007F00091E00E94AF01FF91EF91BF91AF919F9166
:100800008F917F916F915F914F913F912F910F90B9
:100810000FBE0F901F9018951F920F920FB60F9258
:1008200011242F938F939F93EF93FF93E091610196
:10083000F09162018081E0916701F091680182FD91
:1008400012C0908180916A018F5F8F7320916B013C
:10085000821751F0E0916A01F0E0EF5AFE4F958F58
:1008600080936A0101C08081FF91EF919F918F91E8
:100870002F910F900FBE0F901F901895789484B50C
:10088000826084BD84B5816084BD85B5826085BD8C
:1008900085B5816085BD80916E00816080936E001A
:1008A000109281008091810082608093810080910C
:1008B00081008160809381008091800081608093BD
:1008C00080008091B10084608093B1008091B0007D
:1008D00081608093B00080917A00846080937A0078
:1008E00080917A00826080937A0080917A008160A2
:1008F00080937A0080917A00806880937A001092C9
:10090000C100E0916101F091620182E08083E09199
:100910005D01F0915E011082E0915F01F091600154
:100920008FEC808310926901E0916501F09166017E
:1009300086E08083E0916301F091640180818061B1
:100940008083E0916301F0916401808188608083FD
:10095000E0916301F0916401808180688083E0917F
:100960006301F091640180818F7D808383E00E9428
:10097000870086E00E94870087E00E94870085E06C
:100980000E94870083E00E94870061E083E00E946C
:10099000B1008EE00E94FD006C018FE00E94FD001E
:1009A0007C018EE191E00E949602B6010D2C000CB4
:1009B000880B990B0E94CF0620E030E040E85AE314
:1009C0000E94840720E030E040EA50E40E9484075F
:1009D00042E00E94C60284E291E00E949602C601B3
:1009E0000E94980285E491E00E94960287E291E0DD
:1009F0000E949602B7010F2C000C880B990B0E94E5
:100A0000CF0620E030E040E85AE30E94840720E06F
:100A100030E040EA50E40E94840742E00E94C602AF
:100A200084E291E00E949602C7010E94980285E448
:100A300091E00E94960285E00E94870061E085E0D7
:100A40000E94B10061E086E00E94B10060E087E0B2
:100A50000E94B1008DE291E00E94960281E090E058
:100A60000E94980286E391E00E9496024AE064E6C2
:100A700070E080E090E00E94550284E491E00E94E2
:100A800043020E9414014B015C0188EEC82E83E0F2
:100A9000D82EE12CF12C0E941401DC01CB01881925
:100AA0009909AA09BB09883E9340A105B10558F0F0
:100AB00021E0C21AD108E108F10888EE880E83E02F
:100AC000981EA11CB11CC114D104E104F10419F752
:100AD0000E94390257CFE1E5F1E01382128288EEDD
:100AE00093E0A0E0B0E084839583A683B78384E09D
:100AF00091E09183808385EC90E09587848784ECF6
:100B000090E09787868780EC90E0918B808B81ECDA
:100B100090E0938B828B82EC90E0958B848B86ECBB
:100B200090E0978B868B118E128E138E148E089503
:100B3000A1E21A2EAA1BBB1BFD010DC0AA1FBB1FE1
:100B4000EE1FFF1FA217B307E407F50720F0A21B53
:100B5000B30BE40BF50B661F771F881F991F1A94C0
:100B600069F760957095809590959B01AC01BD01EA
:100B7000CF0108955058BB27AA270E94D2050C9494
:100B800045070E94370738F00E943E0720F039F4ED
:100B90009F3F19F426F40C9434070EF4E095E7FB1C
:100BA0000C942E07E92F0E94560758F3BA176207D4
:100BB00073078407950720F079F4A6F50C9478075D
:100BC0000EF4E0950B2EBA2FA02D0B01B901900168
:100BD0000C01CA01A0011124FF27591B99F0593FAC
:100BE00050F4503E68F11A16F040A22F232F342FF4
:100BF0004427585FF3CF469537952795A795F04042
:100C00005395C9F77EF41F16BA0B620B730B840B56
:100C1000BAF09150A1F0FF0FBB1F661F771F881F0E
:100C2000C2F70EC0BA0F621F731F841F48F4879566
:100C300077956795B795F7959E3F08F0B0CF939558
:100C4000880F08F09927EE0F9795879508950E94D1
:100C50000A0708F481E008950E9440060C944507B5
:100C60000E943E0758F00E94370740F029F45F3F8A
:100C700029F00C942E0751110C9479070C94340729
:100C80000E94560768F39923B1F3552391F3951BFE
:100C9000550BBB27AA2762177307840738F09F5F9D
:100CA0005F4F220F331F441FAA1FA9F335D00E2E0A
:100CB0003AF0E0E832D091505040E695001CCAF777
:100CC0002BD0FE2F29D0660F771F881FBB1F26173A
:100CD00037074807AB07B0E809F0BB0B802DBF0111
:100CE000FF2793585F4F3AF09E3F510578F00C94E0
:100CF0002E070C9479075F3FE4F3983ED4F3869572
:100D000077956795B795F7959F5FC9F7880F911D00
:100D10009695879597F90895E1E0660F771F881FEC
:100D2000BB1F621773078407BA0720F0621B730B9F
:100D3000840BBA0BEE1F88F7E09508950E945E07BA
:100D400088F09F5798F0B92F9927B751B0F0E1F08C
:100D5000660F771F881F991F1AF0BA95C9F714C03C
:100D6000B13091F00E947807B1E008950C947807B3
:100D7000672F782F8827B85F39F0B93FCCF3869575
:100D800077956795B395D9F73EF4909580957095D2
:100D900061957F4F8F4F9F4F0895E89409C097FB4F
:100DA0003EF490958095709561957F4F8F4F9F4F42
:100DB0009923A9F0F92F96E9BB279395F695879586
:100DC00077956795B795F111F8CFFAF4BB0F11F449
:100DD00060FF1BC06F5F7F4F8F4F9F4F16C08823F0
:100DE00011F096E911C0772321F09EE8872F762F26
:100DF00005C0662371F096E8862F70E060E02AF067
:100E00009A95660F771F881FDAF7880F9695879552
:100E100097F90895990F0008550FAA0BE0E8FEEF27
:100E200016161706E807F907C0F012161306E407AE
:100E3000F50798F0621B730B840B950B39F40A26A7
:100E400061F0232B242B252B21F408950A2609F485
:100E5000A140A6958FEF811D811D089597F99F6789
:100E600080E870E060E008959FEF80EC0895002432
:100E70000A941616170618060906089500240A94FF
:100E800012161306140605060895092E0394000C85
:100E900011F4882352F0BB0F40F4BF2B11F460FF14
:100EA00004C06F5F7F4F8F4F9F4F089557FD90583D
:100EB000440F551F59F05F3F71F04795880F97FB1E
:100EC000991F61F09F3F79F08795089512161306D8
:100ED0001406551FF2CF4695F1DF08C01616170607
:100EE0001806991FF1CF869571056105089408953C
:100EF000E894BB2766277727CB0197F908950E94CE
:100F00000A0708F48FEF08950E9497070C9445078D
:100F10000E94370738F00E943E0720F0952311F019
:100F20000C942E070C94340711240C9479070E941A
:100F3000560770F3959FC1F3950F50E0551F629FC0
:100F4000F001729FBB27F00DB11D639FAA27F00D22
:100F5000B11DAA1F649F6627B00DA11D661F829F49
:100F60002227B00DA11D621F739FB00DA11D621F2E
:100F7000839FA00D611D221F749F3327A00D611D4B
:100F8000231F849F600D211D822F762F6A2F11242D
:100F90009F5750409AF0F1F088234AF0EE0FFF1F60
:100FA000BB1F661F771F881F91505040A9F79E3FB7
:100FB000510580F00C942E070C9479075F3FE4F301
:100FC000983ED4F3869577956795B795F795E7950D
:100FD0009F5FC1F7FE2B880F911D9695879597F916
:100FE00008950E940A07880B990B0895EE0FFF1FC2
:100FF0000590F491E02D099481E090E0F8940C9430
:061000000108F894FFCF87
:1010060000000000D001390168011702990177013B
:101016008B016E616E00696E66006F7666005630F3
:10102600203D20005620005631203D2000207365CB
:101036006E73203A2000207075697373616E636564
:08104600203A20000D0A000011
:00000001FF
