:100000000C945D000C9485000C9485000C94850084
:100010000C9485000C9485000C9485000C9485004C
:100020000C9485000C9485000C9485000C9485003C
:100030000C9485000C9485000C9485000C9485002C
:100040000C94FA030C9485000C946A040C944404F8
:100050000C9485000C9485000C9485000C9485000C
:100060000C9485000C94850000000008000201003B
:100070000003040700000000000000000000000072
:10008000250028002B0000000000240027002A0083
:10009000040404040404040402020202020203032E
:1000A0000303030301020408102040800102040836
:1000B0001020010204081020760611241FBECFEF85
:1000C000D8E0DEBFCDBF11E0A0E0B1E0ECE1F2E1AD
:1000D00002C005900D92A637B107D9F722E0A6E736
:1000E000B1E001C01D92A632B207E1F710E0CDE504
:1000F000D0E004C02197FE010E940109CC35D10750
:10010000C9F70E949C040C940C090C94000090E028
:10011000FC01EC55FF4F2491FC01E057FF4F849107
:10012000882399F090E0880F991FFC01EA57FF4F50
:10013000A591B491FC01E458FF4F859194918FB73C
:10014000F894EC91E22BEC938FBF0895E091890134
:10015000F0918A010190F081E02D682F89E891E00B
:10016000099490E0FC01E859FF4F3491FC01EC55F3
:10017000FF4F2491FC01E057FF4FE491EE2309F477
:100180003BC0332339F1333091F038F43130A9F0EA
:10019000323001F584B58F7D12C0373091F03830A0
:1001A000A1F03430B9F4809180008F7D03C080913C
:1001B00080008F77809380000DC084B58F7784BDD9
:1001C00009C08091B0008F7703C08091B0008F7D0F
:1001D0008093B000F0E0EE0FFF1FE458FF4FA591B1
:1001E000B4918FB7F894EC91611103C020952E2340
:1001F00001C02E2B2C938FBF08951F93CF93DF93B5
:10020000182FEB010E948700209711F460E004C0D2
:10021000CF3FD10539F461E0812FDF91CF911F915C
:100220000C94B100E12FF0E0E859FF4FE491E33086
:10023000F9F048F4E130B9F0E230A1F584B580621C
:1002400084BDC8BD34C0E730E9F0E83019F1E430CE
:1002500049F580918000806280938000D0938B006C
:10026000C0938A0024C084B5806884BDC7BD1FC008
:1002700080918000806880938000D0938900C09333
:10028000880015C08091B00080688093B000C09352
:10029000B3000DC08091B00080628093B000C09325
:1002A000B40005C0C038D1050CF0B5CFAFCFDF9199
:1002B000CF911F9108958E3008F08E508770806422
:1002C00080937C0080917A00806480937A00809192
:1002D0007A0086FDFCCF809178002091790090E033
:1002E000922B08953FB7F8948091850190918601F3
:1002F000A0918701B091880126B5A89B05C02F3F2A
:1003000019F00196A11DB11D3FBFBA2FA92F982F3B
:100310008827820F911DA11DB11DBC01CD0142E0B6
:10032000660F771F881F991F4A95D1F70895CF92BE
:10033000DF92EF92FF920F931F93CF93DF936C01A5
:100340007A018B01C0E0D0E0CE15DF0589F0D8013D
:100350006D918D01D601ED91FC910190F081E02D20
:10036000C6010995892B11F47E0102C02196ECCFBC
:10037000C701DF91CF911F910F91FF90EF90DF9018
:10038000CF900895089580E090E00895FC01538D8A
:10039000448D252F30E0842F90E0821B930B54175F
:1003A00010F0CF96089501970895FC01918D828DEC
:1003B000981761F0828DDF01A80FB11D5D968C91B9
:1003C000928D9F5F9F73928F90E008958FEF9FEFC4
:1003D0000895FC01918D828D981731F0828DE80F80
:1003E000F11D858D90E008958FEF9FEF0895FC013A
:1003F000918D228D892F90E0805C9F4F821B910907
:100400008F739927089589E891E00E94F70121E010
:10041000892B09F420E0822F0895FC01848DDF01EF
:10042000A80FB11DA35ABF4F2C91848D90E0019667
:100430008F739927848FA689B7892C93A089B18956
:100440008C9180648C93938D848D981306C0028860
:10045000F389E02D80818F7D80830895EF92FF9254
:100460000F931F93CF93DF93EC0181E0888F9B8DD7
:100470008C8D981305C0E889F989808185FD24C099
:10048000F62E0B8D10E00F5F1F4F0F731127E02E1C
:100490008C8DE8120CC00FB607FCFACFE889F989F9
:1004A000808185FFF5CFCE010E940D02F1CF8B8DAB
:1004B000FE01E80FF11DE35AFF4FF0820B8FEA892E
:1004C000FB898081806207C0EE89FF896083E889AB
:1004D000F98980818064808381E090E0DF91CF9111
:1004E0001F910F91FF90EF900895CF93DF93EC0150
:1004F000888D8823C9F0EA89FB89808185FD05C044
:10050000A889B9898C9186FD0FC00FB607FCF5CF7D
:10051000808185FFF2CFA889B9898C9185FFEDCFC5
:10052000CE010E940D02E7CFDF91CF91089580E0C8
:1005300090E0892B29F00E94030281110C940000A5
:100540000895009769F0FC0101900020E9F73197C8
:10055000AF01481B590BBC0189E891E00C9497014D
:1005600080E090E008958F929F92AF92BF920F9398
:100570001F93CF93DF93CDB7DEB7A1970FB6F89453
:10058000DEBF0FBECDBF19A2423008F44AE08E0193
:100590000F5D1F4F842E912CA12CB12CA50194012D
:1005A0000E94A306E62FB901CA0101501109EA30E1
:1005B00014F4E05D01C0E95CD801EC93232B242BFB
:1005C000252B61F7C8010E94A102A1960FB6F894ED
:1005D000DEBF0FBECDBFDF91CF911F910F91BF90B6
:1005E000AF909F908F9008950C94A102CF92DF92CC
:1005F000EF92FF92CF93DF936C01990FEE08FF0803
:10060000F7FE17C08DE20E94A600EC01662777274F
:10061000CB016C197D098E099F094AE00E94B30243
:100620008C0F9D1FDF91CF91FF90EF90DF90CF90C7
:1006300008954AE0C701B601DF91CF91FF90EF9096
:10064000DF90CF900C94B3024F925F926F927F92A3
:100650008F929F92AF92BF92CF92DF92EF92FF92D2
:100660006B017C01B42E9B01AC010E94FC08882325
:1006700019F082E191E027C026013701E89477F86C
:100680002FEF3FEF4FE75FE7C301B2010E94FC0885
:1006900081110DC02FEF3FEF4FE75FE7C301B201BC
:1006A0000E94320718161CF486E191E00CC02FEF6F
:1006B0003FEF4FE75FE4C701B6010E948A081816B2
:1006C00084F48AE191E0FF90EF90DF90CF90BF90AB
:1006D000AF909F908F907F906F905F904F900C9411
:1006E000A1022FEF3FEF4FE75FECC701B6010E9479
:1006F000320787FDE6CF20E030E0A901C701B6014F
:100700000E94320787FF09C08DE20E94A6004C01BB
:10071000F7FAF094F7F8F09402C0812C912CA12CF8
:1007200060E070E080E09FE3AB1441F020E030E057
:1007300040E251E40E943707A394F6CF9B01AC013D
:10074000C701B6010E94C6062B013C010E94A90701
:100750006B017C010E94D8079B01AC01C301B2016F
:100760000E94C5062B013C014AE0C701B6010E9468
:10077000B3027C01E80CF91CBB2029F08EE20E9438
:10078000A600E80EF91EDB2CDD2021F120E030E090
:1007900040E251E4C301B2010E948F082B013C01E9
:1007A0000E94A9074B01A12CB12C4AE0C501B4015C
:1007B0000E94B302E80EF91EC501B4010E94D807D9
:1007C0009B01AC01C301B2010E94C5062B013C0193
:1007D000DA94DACFC701FF90EF90DF90CF90BF900F
:1007E000AF909F908F907F906F905F904F90089503
:1007F0000E9407091F920F920FB60F9211242F9398
:100800003F938F939F93AF93BF938091810190917A
:100810008201A0918301B09184013091800123E095
:10082000230F2D3720F40196A11DB11D05C026E828
:10083000230F0296A11DB11D209380018093810199
:1008400090938201A0938301B093840180918501EC
:1008500090918601A0918701B09188010196A11D18
:10086000B11D8093850190938601A0938701B09379
:100870008801BF91AF919F918F913F912F910F90E0
:100880000FBE0F901F9018951F920F920FB60F92E8
:1008900011242F933F934F935F936F937F938F9385
:1008A0009F93AF93BF93EF93FF9389E891E00E94EA
:1008B0000D02FF91EF91BF91AF919F918F917F9129
:1008C0006F915F914F913F912F910F900FBE0F90BD
:1008D0001F9018951F920F920FB60F9211242F930D
:1008E0008F939F93EF93FF93E0919901F0919A0179
:1008F0008081E0919F01F091A00182FD12C0908162
:100900008091A2018F5F8F732091A301821751F014
:10091000E091A201F0E0E757FE4F958F8093A2018E
:1009200001C08081FF91EF919F918F912F910F9046
:100930000FBE0F901F901895789484B5826084BD87
:1009400084B5816084BD85B5826085BD85B58160D3
:1009500085BD80916E00816080936E001092810051
:10096000809181008260809381008091810081600C
:1009700080938100809180008160809380008091CD
:10098000B10084608093B1008091B0008160809359
:10099000B00080917A00846080937A0080917A0020
:1009A000826080937A0080917A00816080937A00DF
:1009B00080917A00806880937A001092C100E09163
:1009C0009901F0919A0182E08083E0919501F09184
:1009D00096011082E0919701F09198018FEC80834D
:1009E0001092A101E0919D01F0919E0186E080832B
:1009F000E0919B01F0919C01808180618083E09176
:100A00009B01F0919C01808188608083E0919B0133
:100A1000F0919C01808180688083E0919B01F0913E
:100A20009C0180818F7D808383E00E94870086E027
:100A30000E94870087E00E94870085E00E9487006F
:100A40008EE191E00E94F40280917E0190917F01FD
:100A50000E94F60283E791E00E94F40260917E0119
:100A600070917F0183E00E94FD008EE00E945B0197
:100A7000EC018FE00E945B016C0180E10E945B0150
:100A80007C0181E10E945B01BE010D2E000C880BF0
:100A9000990B0E94DA0720E030E040E85AE30E9418
:100AA0008F0820E030E040EA50E40E948F084B01BC
:100AB0005C01B7010F2C000C880B990B0E94DA0720
:100AC00020E030E040E85AE30E948F0820E030E068
:100AD00040EA50E40E948F082B013C0186E291E03D
:100AE0000E94F40242E0C501B4010E9424038CE29A
:100AF00091E00E94F402CE010E94F60283E791E0A9
:100B00000E94F4028FE291E00E94F402B6010D2CE3
:100B1000000C880B990B0E94DA0720E030E040E8D7
:100B20005AE30E948F0820E030E040EA50E40E943F
:100B30008F0842E00E9424038CE291E00E94F402BC
:100B4000C6010E94F60283E791E00E94F40285E369
:100B500091E00E94F40242E0C301B2010E9424032A
:100B60008CE291E00E94F402C7010E94F60283E742
:100B700091E00E94F40220E030E04AE754E4C3012F
:100B8000B2010E94370720E030E04AE754E40E94B7
:100B90008F086B017C018DE391E00E94F40242E03A
:100BA000C701B6010E94240387E491E00E94F40289
:100BB00083E791E00E94F402A5019401C701B60108
:100BC0000E948F0860937A0170937B0180937C016F
:100BD00090937D018BE491E00E94F40260917A0190
:100BE00070917B0180917C0190917D0142E00E9497
:100BF000240385E591E00E94F40283E791E00E94DE
:100C0000F402C0907A01D0907B01E0907C01F090DA
:100C10007D01A70196016091760170917701809125
:100C20007801909179010E948A0840917E0150914B
:100C30007F0118161CF44150510902C04F5F5F4FED
:100C400050937F0140937E01C0927601D09277014C
:100C5000E0927801F09279016FEF70E085E00E94F8
:100C6000FD0060E086E00E94B10060E087E00E9445
:100C7000B10089E591E00E94F40284E691E00E94CF
:100C8000F4024AE064E670E080E090E00E94B30283
:100C900082E791E00E94A1020E9472014B015C0177
:100CA00088EEC82E83E0D82EE12CF12C0E94720130
:100CB000DC01CB0188199909AA09BB09883E934038
:100CC000A105B10558F021E0C21AD108E108F108E8
:100CD00088EE880E83E0981EA11CB11CC114D104BB
:100CE000E104F10419F70E949702AACEE9E8F1E0C5
:100CF0001382128288EE93E0A0E0B0E084839583B3
:100D0000A683B78384E091E09183808385EC90E0B3
:100D10009587848784EC90E09787868780EC90E0C5
:100D2000918B808B81EC90E0938B828B82EC90E0B6
:100D3000958B848B86EC90E0978B868B118E128E30
:100D4000138E148E0895A1E21A2EAA1BBB1BFD015F
:100D50000DC0AA1FBB1FEE1FFF1FA217B307E4079A
:100D6000F50720F0A21BB30BE40BF50B661F771FF2
:100D7000881F991F1A9469F76095709580959095D2
:100D80009B01AC01BD01CF0108955058BB27AA2794
:100D90000E94DD060C9450080E94420838F00E9420
:100DA000490820F039F49F3F19F426F40C943F08C9
:100DB0000EF4E095E7FB0C943908E92F0E946108D6
:100DC00058F3BA17620773078407950720F079F480
:100DD000A6F50C9483080EF4E0950B2EBA2FA02DE7
:100DE0000B01B90190010C01CA01A0011124FF27D8
:100DF000591B99F0593F50F4503E68F11A16F040D3
:100E0000A22F232F342F4427585FF3CF46953795D1
:100E10002795A795F0405395C9F77EF41F16BA0B96
:100E2000620B730B840BBAF09150A1F0FF0FBB1F44
:100E3000661F771F881FC2F70EC0BA0F621F731F8D
:100E4000841F48F4879577956795B795F7959E3FEA
:100E500008F0B0CF9395880F08F09927EE0F97957B
:100E6000879508950E94150808F481E008950E946E
:100E70004B070C9450080E94490858F00E94420801
:100E800040F029F45F3F29F00C94390851110C947B
:100E900084080C943F080E94610868F39923B1F319
:100EA000552391F3951B550BBB27AA276217730790
:100EB000840738F09F5F5F4F220F331F441FAA1F24
:100EC000A9F335D00E2E3AF0E0E832D091505040E0
:100ED000E695001CCAF72BD0FE2F29D0660F771F8E
:100EE000881FBB1F261737074807AB07B0E809F074
:100EF000BB0B802DBF01FF2793585F4F3AF09E3FF9
:100F0000510578F00C9439080C9484085F3FE4F3A1
:100F1000983ED4F3869577956795B795F7959F5F3B
:100F2000C9F7880F911D9695879597F90895E1E087
:100F3000660F771F881FBB1F621773078407BA07E6
:100F400020F0621B730B840BBA0BEE1F88F7E09541
:100F500008950E94690888F09F5798F0B92F992743
:100F6000B751B0F0E1F0660F771F881F991F1AF094
:100F7000BA95C9F714C0B13091F00E948308B1E06E
:100F800008950C948308672F782F8827B85F39F06D
:100F9000B93FCCF3869577956795B395D9F73EF42D
:100FA00090958095709561957F4F8F4F9F4F0895D5
:100FB000E89409C097FB3EF49095809570956195F3
:100FC0007F4F8F4F9F4F9923A9F0F92F96E9BB27A9
:100FD0009395F695879577956795B795F111F8CF25
:100FE000FAF4BB0F11F460FF1BC06F5F7F4F8F4F90
:100FF0009F4F16C0882311F096E911C0772321F086
:101000009EE8872F762F05C0662371F096E8862F1D
:1010100070E060E02AF09A95660F771F881FDAF774
:10102000880F9695879597F90895990F0008550FA1
:10103000AA0BE0E8FEEF16161706E807F907C0F05E
:1010400012161306E407F50798F0621B730B840B66
:10105000950B39F40A2661F0232B242B252B21F440
:1010600008950A2609F4A140A6958FEF811D811DE0
:10107000089597F99F6780E870E060E008959FEF1A
:1010800080EC089500240A9416161706180609061F
:10109000089500240A9412161306140605060895EE
:1010A000092E0394000C11F4882352F0BB0F40F476
:1010B000BF2B11F460FF04C06F5F7F4F8F4F9F4FB6
:1010C000089557FD9058440F551F59F05F3F71F038
:1010D0004795880F97FB991F61F09F3F79F087959F
:1010E0000895121613061406551FF2CF4695F1DF28
:1010F00008C0161617061806991FF1CF86957105B8
:10110000610508940895E894BB2766277727CB01EB
:1011100097F908950E94150808F48FEF08950E942A
:10112000A2080C9450080E94420838F00E94490816
:1011300020F0952311F00C9439080C943F081124E9
:101140000C9484080E94610870F3959FC1F3950F79
:1011500050E0551F629FF001729FBB27F00DB11D3B
:10116000639FAA27F00DB11DAA1F649F6627B00DCB
:10117000A11D661F829F2227B00DA11D621F739FB4
:10118000B00DA11D621F839FA00D611D221F749FC2
:101190003327A00D611D231F849F600D211D822F09
:1011A000762F6A2F11249F5750409AF0F1F0882330
:1011B0004AF0EE0FFF1FBB1F661F771F881F91505D
:1011C0005040A9F79E3F510580F00C9439080C94CB
:1011D00084085F3FE4F3983ED4F38695779567954E
:1011E000B795F795E7959F5FC1F7FE2B880F911D87
:1011F0009695879597F908950E941508880B990B85
:101200000895EE0FFF1F0590F491E02D099481E001
:0C12100090E0F8940C940C09F894FFCFC7
:10121C00000000002E029701C6017502F701D501EE
:10122C00E9016E616E00696E66006F766600416C56
:10123C00706861203A005630203D20005620005640
:10124C0031203D2000566F7574203D20004970619F
:10125C006E656C203D20006D4120005070616E6504
:10126C006C203D20006D57200020212073746F707E
:10127C0020212000207075697373616E6365203ABC
:06128C0020000D0A000025
:00000001FF
